S325800020000020008105230080812300807D4D00800000000000000000000000000000000083
S325800020200000000000000000000000008523008000000000000000008723008029250080FA
S32580002040BD480080C5480080CD480080D5480080DD480080E5480080ED480080F5480080F2
S32580002060FD480080054900800D490080154900801D490080254900802D49008035490080CB
S325800020803D490080454900804D490080554900805D490080654900806D49008075490080AA
S325800020A07D490080854900808D490080954900809D490080A5490080AD490080B54900808A
S325800020C0BD490080C5490080CD490080D5490080DD490080E5490080ED490080F54900806A
S325800020E0FD490080054A00800D4A0080154A00801D4A0080254A00802D4A0080354A008043
S325800021003D4A0080454A00804D4A0080554A00805D4A0080654A00806D4A0080754A008021
S325800021207D4A0080854A00808D4A0080954A00809D4A0080A54A0080AD4A0080B54A008001
S32580002140BD4A0080C54A0080CD4A0080D54A0080DD4A0080E54A0080ED4A0080F54A0080E1
S32580002160FD4A0080054B00800D4B0080154B00801D4B0080254B00802D4B0080354B0080BA
S325800021803D4B0080454B00804D4B0080554B00805D4B0080654B00806D4B0080754B008099
S325800021A07D4B0080854B00808D4B0080954B00809D4B0080A54B0080AD4B0080B54B008079
S325800021C0BD4B0080C54B0080CD4B0080D54B0080DD4B0080E54B0080ED4B0080F54B008059
S325800021E0FD4B0080054C00800D4C0080154C00801D4C0080254C00802D4C0080354C008032
S325800022003D4C0080454C00804D4C0080554C00805D4C0080654C00806D4C0080754C008010
S325800022207D4C0080854C00808D4C0080954C00809D4C0080A54C0080AD4C0080B54C0080F0
S32580002240BD4C0080C54C0080CD4C0080D54C0080DD4C0080E54C0080ED4C0080F54C0080D0
S32580002260FD4C0080054D00800D4D0080154D00801D4D0080254D00802D4D0080354D0080A9
S325800022803D4D0080454D00804D4D0080554D00805D4D0080654D00806D4D0080754D008088
S325800022A0A46B0080A46B008004000000A46B00800000008000000000A46B008000000020B8
S325800022C000000000A46B00800000000000000000A46B00800000202000000000A86B008087
S325800022E018010000000000800000000000000020000000000000000000000000000020205F
S325800023000000000010B572B601F0BEF80D4B07E003F10C049A685968186800F019F82346B3
S32580002320094A9342F4D306E01C46596854F8080B00F01DF82346054A9342F5D362B602F05C
S325800023409DFEFEE7A0220080DC22008004230080002393420AD210B450F8044B41F8044B59
S3258000236004339342F8D35DF8044B7047704700238B4204D2002240F8042B0433F8E77047D2
S32580002380FEE7FEE7FEE7FEE7FEE7FEE780B58EB000AFB9607B600346FB731346BB7343F2D0
S325800023A021537B637B687B61BB68BB6100233B7700237B77FB7BBB770123FB77012387F87C
S325800023C02030BB7B87F82C30BB7B012B18D107F114033B631C220021264802F057FE254B9A
S325800023E0244A1A61234B1B6907F124021146184601F044FA03467B637B6B002B14D010E06E
S32580002400BB7B022B01D17B6B2FE0BB7B032B01D17B6B2AE0BB7B042B01D17B6B25E07B6BDE
S3258000242023E0154802F02EF8124B1B691349184601F05EFA03467B637B6B002B02D0104858
S3258000244002F020F80B4B1B690E49184601F07CFA03467B637B6B002B02D00B4802F012F89D
S32580002460044B1B69094A1360002318463837BD4680BD00BFA86B008020570080BC6B00801D
S3258000248070570080C06B0080C0570080C46B008080B483B000AF03463960FB80B7F9063025
S325800024A0002B0ADB3B68DAB20C49B7F906301201D2B20B4483F800230AE03B68DAB208492E
S325800024C0FB8803F00F03043B1201D2B20B441A7600BF0C37BD465DF8047B704700E100E0E8
S325800024E000ED00E080B582B000AF78607B68013BB3F1807F01D301230FE00A4A7B68013B7F
S3258000250053600F214FF0FF30FFF7C2FF054B00229A60044B07221A60002318460837BD460C
S3258000252080BD00BF10E000E080B400AF064B1B68002B04D0044B1B68013B034A136000BF06
S32580002540BD465DF8047B7047C86B008080B483B000AF7860064A7B68136000BF044B1B688F
S32580002560002BFBD100BF0C37BD465DF8047B7047C86B008080B582B000AF01233B71002392
S325800025807B710023BB7101F059FF01F00FFC02F0B9FC00F0F3FF3B1D1A460921154800F07D
S325800025A06DFB154B1B68154AA2FB03239B091846FFF798FF0346002B00D0FEE74FF47A7043
S325800025C0FFF7C4FF0E4B1B78DBB2002B08D000220921084800F0A4FB094B00221A70EDE741
S325800025E001220921034800F09BFB054B01221A70E4E700BF00801B40A46B0080D34D6210B4
S32580002600BC6C008080B400AF074BD3F8703203F01003002B02D1054B1B6800E0044B184686
S32580002620BD465DF8047B704700800D40CC6B008000366E0180B582B000AF0346FB71FB791E
S3258000264083F00103DBB2002B02D1134801F01AFF124B4FF08042C3F8582100BF0F4BD3F817
S32580002660703203F48033002BF8D00C4B4FF48032C3F8542100BF094BD3F8503103F4004380
S32580002680002BF8D0054B4FF48032C3F8582100BF0837BD4680BD00BF1058008000800D4096
S325800026A080B483B000AF0346FB71FB79002B04D1074B1022C3F8742203E0054B1022C3F860
S325800026C0782200BF0C37BD465DF8047B704700BF00800D4080B400AF064BD3F87032054ACE
S325800026E043F00103C2F8703200BFBD465DF8047B704700BF00800D4080B483B000AF7860FA
S32580002700154B1B6823F4E0327B681B799B039BB21343114A43F4803313600F4B1A680F4B81
S3258000272013407A68126802F07F0213430A4A43F40053136000BF084B1B68002BFBDA064B64
S325800027401B68054A23F48033136000BF0C37BD465DF8047B704700BF00800D4080CFFFFF7B
S3258000276080B483B000AF7860224B1B6B23F4E0327B681B7B9B039BB213431E4A43F48033BD
S3258000278013631C4B1A6B1C4B13407A68127802F001021343174A43F4005313637B685B68D9
S325800027A0144A23F0404313657B689B68114A23F0404313667B685B8AC3F30E027B681B7CCF
S325800027C0DB039BB21A437B68DB891B04094913430B6400BF074B1B6B002BFBDA054B1B6B01
S325800027E0044A23F48033136300BF0C37BD465DF8047B704700800D40FECFFFFF80B400AFBA
S32580002800034B00221A6200BFBD465DF8047B704700800D4080B400AF044B4FF480521A6764
S3258000282000BFBD465DF8047B704700BF00800D4080B400AF044B4FF48052C3F8A02000BFB8
S32580002840BD465DF8047B704700800D4080B400AF044B4FF48052C3F8E02000BFBD465DF87E
S32580002860047B704700800D4090B58DB000AF7860B24B07F10C040FCB84E80F007968B04893
S3258000288002F0ABFA034683F00103DBB2002B01D000234EE17968AA4802F0BDFAF8627968C9
S325800028A0A74802F081FA0346002B01D0FB6A40E17B68A44A934233D07B68A24A93420CD83A
S325800028C07B68A14A93425ED07B68A04A934200F01E817B680D2B19D027E17B689C4A9342C6
S325800028E000F0B0807B689A4A934204D87B68994A934256D019E17B68974A934200F0F58001
S325800029007B68964A934200F0FF800EE18C4B1B6803F07F03FA6A02FB03F35B08FB6207E16D
S32580002920FB6A07EE903AB8EE676B854B1B6D07EE903AB8EE677B26EE075B814B1B6E07EE16
S32580002940903AB8EE676B85EE067B87ED087B7C4B1B6B03F00103002B05D0FB6A162202FBE6
S3258000296003F3FB6205E0FA6A13469B0013449B00FB6297ED087BFCEEC77B17EE902AFB6A9B
S325800029801344FB62D4E06E4B1B6903F00203002B01D0162200E01422FB6A02FB03F3FB6215
S325800029A0C6E0674B1B6F03F07F03FB61FB6A07EE903AB8EE676B624BD3F8803007EE903A5B
S325800029C0B8EE677B26EE075B5D4BD3F8903007EE903AB8EE676B85EE067B87ED087BFB6AB9
S325800029E0FA6902FB03F397ED087BFCEEC77B17EE902A1344FB62524B1B6F03F4C013002B39
S32580002A0003D0B3F5002F04D007E0FB6A9B08FB6203E0FB6A5B08FB6200BF494BD3F87021AF
S32580002A204F4B1340B3F5004F06D04D4A934207D1FB6A9B08FB6204E0FB6A5B08FB6200E0C4
S32580002A4000BF75E03E4BD3F8A03003F07F03FB61FB6A07EE903AB8EE676B394BD3F8B0301C
S32580002A6007EE903AB8EE677B26EE075B344BD3F8C03007EE903AB8EE676B85EE067B87ED3A
S32580002A80087BFB6AFA6902FB03F397ED087BFCEEC77B17EE902A1344FB62294BD3F8A030BD
S32580002AA003F4C013002B03D0B3F5002F04D007E0FB6A9B08FB6203E0FB6A5B08FB6200BF0A
S32580002AC01F4BD3F8703103F04043B3F1804F06D0B3F1404F07D1FB6A9B08FB6204E0FB6A22
S32580002AE05B08FB6200E000BF22E0154BD3F8E03003F00303FB61FB699B0007F130021344DF
S32580002B0053F8243CFB6213E0164BFB6210E00C4B1B6A03F00203002B01D0162200E0142268
S32580002B20FB6A02FB03F3FB6202E00023FB6200BFFB6A18463437BD4690BD00BF3C580080E8
S32580002B4000800D400D0030000D0010000D0020000D00A0000D0070000D00E0001500E0008F
S32580002B600080800040787D0180B485B000AF03460A46FB711346BB71FB79FB60124BD3F800
S32580002B800021FB68DB00BF2101FA03F3DB431340BB60FB68DB0080229A400B49BB6813436C
S32580002BA0C1F80031BB7903F03F02FB68DB009A400549BB681343C1F8003100BF1437BD4667
S32580002BC05DF8047B704700BF00800D4080B586B000AF03460A46FB8013467B71B7F90630FF
S32580002BE01B0A7B61FB8803F01F033B617B69062B02D90D4801F046FC7B699A000B4B134477
S32580002C00FB60FB681A6803213B6901FA03F3DB431A4079793B6901FA03F31A43FB681A60FC
S32580002C2000BF1837BD4680BDD858008068C00F4080B584B000AF78600023FB6009E00D4AEB
S32580002C40FB6852F823307A689A4206D0FB680133FB60FB68052BF2D900E000BFFB68052BD8
S32580002C6002D9054801F00EFCFB6818461037BD4680BD00BF6C5900800459008080B586B017
S32580002C8000AFF860B9607A60F868FFF7D1FF78617B69052B0DD8214A7B6932F91330B3F15B
S32580002CA0FF3F06D01D4A7B6932F91330184602F0CCF8FB685A690121BB6801FA03F3DB4333
S32580002CC01A40FB685A617B681B78002B0AD1FB685A680121BB6801FA03F3DB431A40FB6844
S32580002CE05A600FE07B685B781A46B968F86800F017F8FB685A680121BB6801FA03F31A4357
S32580002D00FB685A607B689B781A46B968F86802F0ABF800BF1837BD4680BD00BF845900803A
S32580002D2080B584B000AFF860B9601346FB71BB681F2B02D90E4801F0A5FBFB79002B0AD116
S32580002D40FB681A680121BB6801FA03F3DB431A40FB681A6008E0FB681A680121BB6801FA70
S32580002D6003F31A43FB681A6000BF1037BD4680BD4459008080B487B000AFF860B960134656
S32580002D80FB71BB683B61FB68DA690121BB6801FA03F3DB431A40FB68DA61BB680F2B03D858
S32580002DA0FB680C337B6105E0FB6810337B613B69103B3B61FB79013B042B52D801A252F827
S32580002DC023F000BFD92D0080F12D0080152E0080392E00804F2E00807B691A683B695B006B
S32580002DE0032101FA03F3DB431A407B691A6039E07B691A683B695B00032101FA03F3DB43B1
S32580002E001A403B695B00012101FA03F31A437B691A6027E07B691A683B695B00032101FA7A
S32580002E2003F3DB431A403B695B00022101FA03F31A437B691A6015E07B691A683B695B0076
S32580002E40032101FA03F31A437B691A600AE0FB68DA690121BB6801FA03F31A43FB68DA615B
S32580002E6000E000BF00BF1C37BD465DF8047B704780B586B000AF03460A46FB8013467B711A
S32580002E80B7F906301B0A7B61FB8803F01F033B617B69062B02D90D4801F0F4FA7B699A00EF
S32580002EA00B4B1344FB60FB681A6803213B6901FA03F3DB431A4079793B6901FA03F31A438A
S32580002EC0FB681A6000BF1837BD4680BD9059008068C00F4080B584B000AF78600023FB60F3
S32580002EE009E00D4AFB6852F823307A689A4206D0FB680133FB60FB68082BF2D900E000BF86
S32580002F00FB68082B02D9054801F0BCFAFB6818461037BD4680BD00BF44600080BC59008006
S32580002F2080B58CB000AFF860B9607A60BB68002B02D19F4801F0A6FABB681B68002B02D163
S32580002F409C4801F09FFABB681B7A042B02D99A4801F098FABB685B7A042B02D9974801F084
S32580002F6091FABB681B68BB6100237B6200237B8504233B6244E0BB681B683A6A02FB03F336
S32580002F807A68B2FBF3F33B853B8D002B01D101233B853B8D3A6A02FB03F37A68B2FBF3F3F9
S32580002FA07B61BB681B687A69D31AFB61BB681A683B8D0133396A01FB03F37968B1FBF3F334
S32580002FC0D31AFA699A420ED9BB681A683B8D0133396A01FB03F37968B1FBF3F3D31AFB6166
S32580002FE03B8D01333B85FA69BB699A4205D8FB69BB613B6A7B623B8D7B853B6A01333B620F
S325800030003B6A202BB7D9BB681B686D4AA2FB03235A0913465B001344BA699A4202D940F210
S325800030202153F8E0F868FFF755FF3861654A3B6932F91330184601F028FFF86801F034FFC0
S32580003040FB681B69FB627B6A032B06D97B6A072B03D8FB6A43F40033FB62FB6A23F0F853D3
S32580003060FB627B6A013B1B0603F0F853FA6A1343FB62FA6A544B1340FB627B8DC3F30C0257
S32580003080FB6A1A43FB681A61FB681B6923F00052FB681A61FB689A694C4B1340FB62BB6810
S325800030A01B791A46BB68DB7B1B0203F4E0631A43BB689B7B9B0003F004031343FA6A13438B
S325800030C0FB62BB685B79012B0DD1BB681B79002B04D0FB6A23F40063FB620CE0FB6A43F492
S325800030E00063FB6207E0BB681B79002B03D0FB6A43F01003FB62FB68FA6A9A61FB681B693D
S3258000310023F40053FB62BB68DB795B0303F40052FB6A1A43FB681A61BB685B7A1B04BA686B
S32580003120127A1A43FB68DA62FB689B6A43F08802FB689A62FB689B6A43F44042FB689A627D
S32580003140234BFB62FB6A43F00043FB62FB6A43F44043FB62FB685A6ABB685B7B1B0103F03B
S325800031601001BB681B7B5B0103F020030B431A43FB685A62BB689B7A002B05D0FB685B6A63
S3258000318043F00802FB685A62BB68DB7A002B05D0FB685B6A43F00102FB685A62BB689B7921
S325800031A0002B17D0FB6A43F00053FB6216E000BFB85A0080E85A0080205B0080885B0080C8
S325800031C01F85EB516860008000E0FFFFE8F8FFFF00001F40FB6A23F00053FB62FB685A69D8
S325800031E0FB6A1A43FB685A61FB689B69FB62BB681B7C002B03D0FB6A43F40023FB62BB68AE
S325800032005B7C002B03D0FB6A43F48023FB62FB68FA6A9A61002318463037BD4680BD00BF0E
S3258000322080B582B000AF78607B68002B02D11D4801F028F914220021786801F027FF7B6891
S325800032404FF4E1321A607B6800221A717B6800225A717B6800229A717B680022DA717B6875
S3258000326000221A727B6800225A727B6800229A727B680022DA727B6800225A737B68002210
S325800032801A737B6800229A737B680022DA737B6800221A747B6800225A7400BF0837BD4650
S325800032A080BD00BFF05B008080B500AF044B1B68044A526811460448984700BF80BD00BFC6
S325800032C0F86B0080D46B00800040184080B500AF044B1B68044A926811460448984700BFEF
S325800032E080BD00BFF86B0080D46B00800080184080B500AF044B1B68044AD26811460448F1
S32580003300984700BF80BD00BFF86B0080D46B008000C0184080B500AF044B1B68044A126954
S3258000332011460448984700BF80BD00BFF86B0080D46B00800000194080B500AF044B1B6819
S32580003340044A526911460448984700BF80BD00BFF86B0080D46B00800040194080B500AF82
S32580003360044B1B68044A926911460448984700BF80BD00BFF86B0080D46B008000801940F4
S3258000338080B500AF044B1B68044AD26911460448984700BF80BD00BFF86B0080D46B008089
S325800033A000C0194080B500AF044B1B68044A126A11460448984700BF80BD00BFF86B0080CE
S325800033C0D46B008000001A4080B400AFBFF34F8FBFF36F8F0B4B0022C3F85022BFF34F8FF6
S325800033E0BFF36F8F074B5B69064A43F400335361BFF34F8FBFF36F8F00BFBD465DF8047B3D
S32580003400704700BF00ED00E080B485B000AF1D4B0022C3F88420BFF34F8F1A4BD3F8803072
S325800034207B607B685B0BC3F30E03FB607B68DB08C3F30903BB60FB685A0143F6E073134080
S32580003440BA6892070F491343C1F86032BB685A1EBA60002BEFD1FB685A1EFA60002BE5D17C
S32580003460BFF34F8F074B5B69064A43F480335361BFF34F8FBFF36F8F00BF1437BD465DF890
S32580003480047B704700ED00E080B500AF344BD3F88830334A43F47003C2F88830304B314A2E
S325800034A09A60314B1B899BB22F4A23F001039BB213812E4B1B899BB22C4A23F001039BB26A
S325800034C01381294B1B889BB203F00403002B07D0254B1B889BB2244A23F004039BB21380AA
S325800034E0224B1B889BB203F00403002B07D01F4B1B889BB21D4A23F004039BB213801C4BCB
S325800035001C4A5A601A4B4FF6FF729A60184B1B6823F0A003164A43F020031360164B1B6847
S3258000352003F00103002B05D0134B1B68124A23F0010313600A4B5B6903F40033B3F5003F1D
S3258000354001D0FFF741FF064B5B6903F48033B3F5803F01D0FFF758FF01F0BCFC00BF80BDF5
S3258000356000ED00E00020008000800B4000000D4000C00B4020C528D910E000E090B585B005
S3258000358000AF784B5B6903F00073002B45D0754B9B6903F44053B3F5805F21D0B3F5005FFC
S325800035A021D0002B2BD1704B1B6903F48033002B0BD06D4B1B699B0B03F00303002B01D1A6
S325800035C06A4B00E00023FB601CE0674B1B6903F00203002B01D0664B00E0664BFB6011E09E
S325800035E0624BFB600EE0604B1B6B9B0B03F00303002B01D15D4B00E00023FB6002E0002377
S32580003600FB6000BF574B5B69DB0E03F007030133FA68B2FBF3F3FB6095E0534B1B6803F4AD
S325800036208033002B0BD0504B1B689B0B03F00303002B01D14D4B00E00023BB6008E04A4B5E
S325800036401B6803F07F03494A02FB03F35B08BB60454B1B6B03F48033002B0BD0424B1B6B0F
S325800036609B0B03F00303002B01D1404B00E000237B6009E03C4B1B6B03F00103002B01D0D6
S325800036803B4B00E03B4B7B60374B1B6D4FF00004364A02FB04F1002202FB03F20A44334940
S325800036A0A3FB0101531819462F4B1B6E4FF000041A46234601F0B3FE03460C461A467B688B
S325800036C013447B60274B9B6903F44023B3F5802F0FD0B3F5802F02D8002B07D030E0B3F541
S325800036E0002F15D0B3F5402F20D029E07B68FB6029E01D4BD3F800311B0C03F03F037A6837
S32580003700B2FBF3F21346DB0013445B00FB601AE0154BD3F8003103F03F037A68B2FBF3F251
S325800037201346DB0013445B00FB600CE00D4B1B6903F007030133BA68B2FBF3F3FB6002E0D7
S325800037400023FB6000BF074B5B699B0A03F007030133FA68B2FBF3F3074A136000BF1437F7
S32580003760BD4690BD00C00F4000800D4000366E0100A4781F00389C1CA46B008080B58AB0C9
S3258000378000AF786039607B68002B02D1364800F079FE3B68002B02D1344800F073FE3B689C
S325800037A01B7B082B02D9324800F06CFE3B681B7B1A46304B53F82230002B02D12E4800F0F6
S325800037C061FE07F10C031846FFF72AFD3B685B68FB603B681B7A012B02D102233B7408E0CE
S325800037E03B681B7A022B02D103233B7401E000233B743B685B7A012B02D10123FB7401E098
S325800038000023FB743B689B7A002B14BF01230023DBB27B773B68DB7A002B14BF01230023D7
S32580003820DBB23B773B681B7B1A46124B53F822003B681A6807F10C031946FFF771FB786299
S325800038407B6A002B04D0786A01F04BFB034606E07B683B623B681A7B3B6A1A70002318464E
S325800038602837BD4680BD00BFA0600080D0600080006100807C6000807461008080B584B039
S3258000388000AF7860396043F22153FB813B68002B02D1154800F0F6FD7B68002B02D1134840
S325800038A000F0F0FD7B68BB6010220021B86801F0EDFB3B681A7ABB681A733B681B7A012B10
S325800038C00BD1BB6803F108023B68DB681946104600F06AF80346FB8100E000BFFB89184632
S325800038E01037BD4680BD00BFFC6400803865008080B584B000AF786039607B68002B02D195
S325800039000F4800F0BFFD3B68002B02D10D4800F0B9FD7B68FB603B68BB600422002138689F
S3258000392001F0B4FBFB685B685A1CFB685A60BB68FA681A60002318461037BD4680BD00BFE2
S32580003940B8650080F865008080B584B000AF786039607B68002B02D1114800F093FD3B6881
S32580003960002B02D10F4800F08DFD7B68FB603B68BB60FB681B68002B02D043F222530BE07E
S3258000398004220021386801F081FBFB68BA681A60BB68FA681A60002318461037BD4680BD47
S325800039A0B4660080F866008080B588B000AF786039603B68002B02D1194800F063FD7B6847
S325800039C0002B02D1174800F05DFD3B68FB617B68BB61FB695B68FB60FB691B7A3B74FB692E
S325800039E05B7A7B74FB69DB7ABB74FB691B7BFB74FB691B68BB60FB699B7A3B75BB6907F1E5
S32580003A00080211461846FFF7B9FE0346002B02D043F2215300E0002318462037BD4680BDCD
S32580003A203C6800808068008080B483B000AF78607B68DAB20C4B13441A687B685B13C3F3E0
S32580003A400C017B681B1203F01F0301FA03F31A407B681B1203F01F0322FA03F318460C378B
S32580003A60BD465DF8047B704700C00F4080B483B000AF78607B68DAB20C4B13441A687B68B3
S32580003A805B13C3F30C017B681B1203F01F0301FA03F31A407B681B1203F01F0322FA03F3C8
S32580003AA018460C37BD465DF8047B704700C00F4080B400AF074BD3F8703203F01003002B6F
S32580003AC002D1054B1B6800E0044B1846BD465DF8047B704700800D40CC6B008000366E0176
S32580003AE090B583B000AF1348FFF79EFF0346002B10D11148FEF7B8FE0246104BA3FB02236C
S32580003B009C080F48FFF7B2FF03460133B4FBF3F37B600AE0FFF7CCFF04460948FFF7A6FFAF
S32580003B2003460133B4FBF3F37B607B6818460C37BD4690BD242600800D001000ABAAAAAAAE
S32580003B4024E0078080B584B000AF786039607B689B0EFB607B68DAB21F4B13441A687B684F
S32580003B605B13C3F30C017B681B1203F01F0301FA03F3DB4302EA03017B681B1203F01F0345
S32580003B803A689A407B685B13C3F30C007B681B1203F01F0300FA03F31A407B68D8B20E4BDB
S32580003BA00344184641EA02030360FB68202B02D90A4800F067FCFB68202B09D000BF064B82
S32580003BC09A6CFB6822FA03F303F00103002BF6D100BF1037BD4680BD00C00F40806A00803C
S32580003BE080B584B000AF786039607B689B0EFB607B68DAB21F4B13441A687B685B13C3F316
S32580003C000C017B681B1203F01F0301FA03F3DB4302EA03017B681B1203F01F033A689A404C
S32580003C207B685B13C3F30C007B681B1203F01F0300FA03F31A407B68D8B20E4B0344184611
S32580003C4041EA02030360FB68202B02D90A4800F019FCFB68202B09D000BF064B9A6CFB686B
S32580003C6022FA03F303F00103002BF6D100BF1037BD4680BD00C00F40BC6A008080B586B05D
S32580003C8000AF03460A46FB8013467B71B7F906301B0A7B61FB8803F01F033B617B69062B66
S32580003CA002D90D4800F0EEFB7B699A000B4B1344FB60FB681A6803213B6901FA03F3DB4333
S32580003CC01A4079793B6901FA03F31A43FB681A6000BF1837BD4680BDF86A008068C00F409C
S32580003CE080B483B000AF7860044A7B68136000BF0C37BD465DF8047B704700BFCC6B0080A6
S32580003D0080B483B000AF7860044A7B68136000BF0C37BD465DF8047B704700BFD06B008081
S32580003D2080B485B000AFF860B9601346FB71BA680C4B1340BB60FB79002B06D0FB685A682E
S32580003D40BB681A43FB685A6006E0FB685A68BB68DB431A40FB685A6000BF1437BD465DF81B
S32580003D60047B704700F0FFFF80B485B000AF78600B46FB701346BB707B689A680A4B1340DC
S32580003D80FB60FB789B0603F08062FB681A43BB781B0403F47F031A437B689A6000BF14378A
S32580003DA0BD465DF8047B7047FFFF00FB80B500AF4FF40040FFF7A4FFD94BD3F8C032D84AF3
S32580003DC043F48033C2F8C032D54BD3F8C032D44A23F40033C2F8C032D248FFF781FF002026
S32580003DE0FEF728FCFEF776FC0120FEF759FCCE4B1B6823F0FF03CC4A43F07F031360012141
S32580003E00CA48FFF79FFE0121C948FFF79BFEC94BDB6823F01F03C74A43F01303D36000BFDD
S32580003E20C44B1B6803F00043B3F1004FF8D10021C148FFF7D5FE4FF4887001F074F84FF4AA
S32580003E40847001F070F840F2162001F06CF84FF4067001F068F840F20E2001F064F80321F7
S32580003E60B648FFF7BDFE0121B548FFF7B9FE0021B448FFF7B5FE4FF48A7001F054F84FF4BE
S32580003E808B7001F050F8182001F04DF81A2001F04AF84FF4867001F046F80121AA48FFF71B
S32580003EA09FFE40F2026001F03EF80121A748FFF797FE0021A648FFF745FE40F2046001F0B9
S32580003EC032F80121A348FFF78BFE0021A248FFF739FE4FF4417001F026F807214FF21400EE
S32580003EE0FFF77EFE00219D48FFF72CFE00219C48FFF728FE40F2022001F015F8012199482E
S32580003F00FFF76EFE00219848FFF71CFE4FF4807001F009F84FF4817001F005F84FF482702C
S32580003F2001F001F84FF4837000F0FDFF04218F48FFF756FE02218E48FFF704FE162000F092
S32580003F40F2FF02218B48FFF74BFE02218A48FFF7F9FD40F2125000F0E6FF03218748FFF782
S32580003F603FFE01218648FFF73BFE00218548FFF7E9FD40F2145000F0D6FF03218248FFF756
S32580003F802FFE01218148FFF72BFE00218048FFF7D9FD40F2165000F0C6FF03217D48FFF783
S32580003FA01FFE01217C48FFF71BFE00217B48FFF7C9FD40F2062000F0B6FF4FF4027000F027
S32580003FC0B2FF40F20A2000F0AEFF00217448FFF707FE00217348FFF7B5FD0E2000F0A3FF95
S32580003FE0122000F0A0FF102000F09DFF142000F09AFF01216C48FFF7F3FD02216B48FFF779
S32580004000A1FD4FF4A36000F08EFF1C2000F08BFF0C2000F088FF4FF48C7000F084FF40F27C
S32580004020023000F080FF40F2063000F07CFF40F21A5000F078FF40F20E6000F074FF00215F
S325800040405B48FFF7CDFD00215A48FFF77BFD40F20A3000F068FF01215748FFF7C1FD0321EA
S325800040605648FFF7BDFD05215548FFF76BFD40F20E5000F058FF01215248FFF7B1FD0721EC
S325800040805148FFF7ADFD03215048FFF75BFD40F2025000F048FF01214D48FFF7A1FD072129
S325800040A04C48FFF79DFD03214B48FFF74BFD4FF4407000F038FF01214848FFF791FD0721E9
S325800040C04748FFF78DFD03214648FFF73BFD00214548FFF737FD4548FEF70EFB4448FEF787
S325800040E03FFB1B210020FEF73FFD10210120FEF73BFD18210220FEF737FD10210320FEF727
S3258000410033FD074B1B6B064A23F480231363FEF781FB01223749024800F014FF6CE000BF25
S3258000412000800D4000366E0100C00F40186C0080143900140000084014EA000414680080CD
S3258000414010E0004014FB00801CE0078024EB00801C30008024F000801C3100801427008020
S32580004160142600803CEB00803C69008018FA00801864008024790080186E008028E60080F4
S3258000418028E007801C6A00802CE600802CE007801C6C008028F6008028F007801C6E008090
S325800041A038F307803832008020E207802068008024E007802426008038EC008018F70080C4
S325800041C038EF008030F9008030F600803074008030EC008030E900803067008028E9008062
S325800041E028F90080207300800C200080246B00802C6B00800D0070006C4BD3F870316B4A5E
S3258000420023F40043C2F87031684BD3F87031674A23F40003C2F87031644B1B6F634A43F401
S3258000422000531367FEF704FB604BD3F8A0305F4A43F48033C2F8A0305C4BD3F870315B4A1C
S3258000424023F04043C2F87031584BD3F8A030574A43F40053C2F8A030FEF7F8FA012254494D
S32580004260524800F06FFE514BD3F8E03023F003034E4A43F00103C2F8E0304C4BD3F8E03026
S325800042804A4A43F40053C2F8E030484BD3F8E030464A43F40013C2F8E030FEF7AFFA0122DD
S325800042A04449424800F04EFE404B1B6A3F4A43F40053136203214048FFF744FC00213F4803
S325800042C0FFF740FC00213E48FFF73CFC00213D48FFF738FC354BD3F86031344A23F01F03F2
S325800042E0C2F86031384B1B6E374A23F070031366354B1B6E23F00F03334A43F00103136606
S32580004300314B1B6E304A23F4600313662E4B1B6E23F4F8132C4A43F4901313662A4B1B6EBA
S32580004320294A23F480731366274B1B6E264A23F080031366244B1B6E234A23F080731366A3
S3258000434000220021214800F024FE002203211F4800F01FFE002206211C4800F01AFE002288
S3258000436008211A4800F015FE00220A21174800F010FE002200211548FFF7F6FC00224FF492
S3258000438000511248FFF7CCFC104B5B690F4A23F0805353610D4B5B690C4A23F00053536190
S325800043A00B4B0C4A1A6000BF80BD00BF00800D400D00E0000D002000187200801439001444
S325800043C0186C00801C26008000C00F4000C00A40A46B00800046C32380B586B000AF03465A
S325800043E00A46FB8013467B71B7F906301B0A7B61FB8803F01F033B617B69062B02D90D48C7
S3258000440000F040F87B699A000B4B1344FB60FB681A6803213B6901FA03F3DB431A40797960
S325800044203B6901FA03F31A43FB681A6000BF1837BD4680BD406B008068C00F4080B582B0D0
S3258000444002AF40F2024000F0DAFD002301930B4B0093002300220521094800F0DFFD41F28F
S32580004460B0030193054B0093002300220521044800F0F1FD00BFBD4680BD00BFD0821F4088
S32580004480E0801F4010B504460E490F4800F001FF0C49204600F0FDFE0C49D1F88030013B7A
S325800044A0002BC1F8803008DB8B6F5A1C8A670A221A70BDE8104000F0E8BD78310A2000F09B
S325800044C007FEF6E7746C0080706B0080FC6B00802DE9F041D56880460E461446EB0257692D
S325800044E005D545F01005384601F070F8A061124B2B408BB1A169384601F071F8002806DA4C
S32580004500E3684FF0FF3043F08003E36011E025F4003525F01005E56032464146384601F047
S3258000452064F820F00043F61AA3691E44A6610028E6D1BDE8F08100BF10000200F8B5304FCF
S325800045403C68002851D10020F8BD2368B3F1805F39D1D4E9013252B11168B1F1805F06D136
S32580004560516803330B4463609368A360F1E7AB4207DB734505DC20464FF0005340F80C3BFF
S32580004580E2E7634511D920464FF0005165605B1B40F80C1B00EB8501033BA1604FF08054E7
S325800045A040F82540C1E90132CEE762B9A0EB830000F038F90130C6D04FF0005304F10C00A2
S325800045C0C4E90035C0E72646A468002CBDD10C3000F028F9431CB6D04FF000538460C0E949
S325800045E0003556B938600C30AEE7C31C00269D0805F10A0C05F1030EE7E7B060F3E700BF54
S32580004600B46C008010B5FFF799FF044628B91722034900F0EAFF00F038FD204610BD00BF81
S32580004620856B00802DE9F843C66804463C4B0D46904633401BB902273846BDE8F883D0F835
S325800046401490484600F0C5FF07460028F3D1B8F1010F2CD0B8F1020F2ED0B8F1000FEAD1D5
S32580004660002DE8DBB00404D52368E26A9A4238BFE362A169A9420EDC2368E26A934238BFC6
S32580004680134622695818801AA84204DB206B01EB000CAC4534DC002346F02006A562C4E926
S325800046A0013326F4032626F04006E660C4E7204600F038F80544D3E7484600F087FFB0F182
S325800046C0000CE26804DA42F080020127E260B3E7E36A1846A3691946236883422CBFC91836
S325800046E0091892060B462169A3EB010303D5A26A9342B8BF13466345ACBFED186544AFE72E
S325800047006D1AB10744BF281AA060F10726F0200644BF9B1AEB1A154448BF63602560C0E74F
S3258000472003001000C3689A0705D10F4B21224FF0FF301A60704703F020021B030AD512B12D
S32580004740806A0138704703688269006913441B1A581E70470AB1806A704703688269006966
S325800047601344181A704700BFB86C008010B5174A0020174900F0C9FD4FF480734FF4806259
S325800047800021124800F02EF8124A1349012000F0BCFD4FF480734FF4806200210D4800F0BF
S325800047A021F80E4B1B68022B0EDD0D4A02200A4900F0ABFD4FF480734FF480620021084836
S325800047C0BDE8104000F00EB810BD00BFFC6B00809D6B0080386C00809F6B00806C6B0080A8
S325800047E0746C008070B5C468A50708D0B2F5007F11D0B2F5806F04D0B2F5807F0BD00120EB
S3258000480008E000F124010123144301610160C361C460002070BD5E1E014DAE42F4D9EEE7E5
S32580004820FEFFFF0070B50B4D2B680BB90A4B2B60C41C2E6824F003043444204600F032F8B9
S3258000484010B92C60304670BD044B0C224FF0FF361A60F7E7B06C0080C06C0080B86C0080A5
S32580004860F7B5044698B103B0BDE8F04000F0B7BD07FB0460013400F0B2FD002818BF4FF00F
S32580004880FF35019BA342F3DC284603B0F0BD034B05463C27024E1B680193F2E76C6B0080AD
S325800048A0FC6B0080044B23B1984234BF0020012070471846704700BFC07C008008B5FDF762
S325800048C064FD08BD08B5FDF760FD08BD08B5FDF75CFD08BD08B5FDF758FD08BD08B5FDF70E
S325800048E054FD08BD08B5FDF750FD08BD08B5FDF74CFD08BD08B5FDF748FD08BD08B5FDF72E
S3258000490044FD08BD08B5FDF740FD08BD08B5FDF73CFD08BD08B5FDF738FD08BD08B5FDF74D
S3258000492034FD08BD08B5FDF730FD08BD08B5FDF72CFD08BD08B5FDF728FD08BD08B5FDF76D
S3258000494024FD08BD08B5FDF720FD08BD08B5FDF71CFD08BD08B5FDF718FD08BD08B5FEF78C
S32580004960A3FC08BD08B5FEF7B1FC08BD08B5FEF7BFFC08BD08B5FEF7CDFC08BD08B5FEF705
S32580004980DBFC08BD08B5FEF7E9FC08BD08B5FEF7F7FC08BD08B5FEF705FD08BD08B5FDF705
S325800049A0F4FC08BD08B5FDF7F0FC08BD08B5FDF7ECFC08BD08B5FDF7E8FC08BD08B5FDF7F1
S325800049C0E4FC08BD08B5FDF7E0FC08BD08B5FDF7DCFC08BD08B5FDF7D8FC08BD08B5FDF711
S325800049E0D4FC08BD08B5FDF7D0FC08BD08B5FDF7CCFC08BD08B5FDF7C8FC08BD08B5FDF731
S32580004A00C4FC08BD08B5FDF7C0FC08BD08B5FDF7BCFC08BD08B5FDF7B8FC08BD08B5FDF750
S32580004A20B4FC08BD08B5FDF7B0FC08BD08B5FDF7ACFC08BD08B5FDF7A8FC08BD08B5FDF770
S32580004A40A4FC08BD08B5FDF7A0FC08BD08B5FDF79CFC08BD08B5FDF798FC08BD08B5FDF790
S32580004A6094FC08BD08B5FDF790FC08BD08B5FDF78CFC08BD08B5FDF788FC08BD08B5FDF7B0
S32580004A8084FC08BD08B5FDF780FC08BD08B5FDF77CFC08BD08B5FDF778FC08BD08B5FDF7D0
S32580004AA074FC08BD08B5FDF770FC08BD08B5FDF76CFC08BD08B5FDF768FC08BD08B5FDF7F0
S32580004AC064FC08BD08B5FDF760FC08BD08B5FDF75CFC08BD08B5FDF758FC08BD08B5FDF710
S32580004AE054FC08BD08B5FDF750FC08BD08B5FDF74CFC08BD08B5FDF748FC08BD08B5FDF730
S32580004B0044FC08BD08B5FDF740FC08BD08B5FDF73CFC08BD08B5FDF738FC08BD08B5FDF74F
S32580004B2034FC08BD08B5FDF730FC08BD08B5FDF72CFC08BD08B5FDF728FC08BD08B5FDF76F
S32580004B4024FC08BD08B5FDF720FC08BD08B5FDF71CFC08BD08B5FDF718FC08BD08B5FDF78F
S32580004B6014FC08BD08B5FDF710FC08BD08B5FDF70CFC08BD08B5FDF708FC08BD08B5FDF7AF
S32580004B8004FC08BD08B5FDF700FC08BD08B5FDF7FCFB08BD08B5FDF7F8FB08BD08B5FDF7D1
S32580004BA0F4FB08BD08B5FDF7F0FB08BD08B5FDF7ECFB08BD08B5FDF7E8FB08BD08B5FDF7F3
S32580004BC0E4FB08BD08B5FDF7E0FB08BD08B5FDF7DCFB08BD08B5FDF7D8FB08BD08B5FDF713
S32580004BE0D4FB08BD08B5FDF7D0FB08BD08B5FDF7CCFB08BD08B5FDF7C8FB08BD08B5FDF733
S32580004C00C4FB08BD08B5FDF7C0FB08BD08B5FDF7BCFB08BD08B5FDF7B8FB08BD08B5FDF752
S32580004C20B4FB08BD08B5FDF7B0FB08BD08B5FDF7ACFB08BD08B5FDF7A8FB08BD08B5FDF772
S32580004C40A4FB08BD08B5FDF7A0FB08BD08B5FDF79CFB08BD08B5FDF798FB08BD08B5FDF792
S32580004C6094FB08BD08B5FDF790FB08BD08B5FDF78CFB08BD08B5FDF788FB08BD08B5FDF7B2
S32580004C8084FB08BD08B5FDF780FB08BD08B5FDF77CFB08BD08B5FDF778FB08BD08B5FDF7D2
S32580004CA074FB08BD08B5FDF770FB08BD08B5FDF76CFB08BD08B5FDF768FB08BD08B5FDF7F2
S32580004CC064FB08BD08B5FDF760FB08BD08B5FDF75CFB08BD08B5FDF758FB08BD08B5FDF712
S32580004CE054FB08BD08B5FDF750FB08BD08B5FDF74CFB08BD08B5FDF748FB08BD08B5FDF732
S32580004D0044FB08BD08B5FDF740FB08BD08B5FDF73CFB08BD08B5FDF738FB08BD08B5FDF751
S32580004D2034FB08BD08B5FDF730FB08BD08B5FDF72CFB08BD08B5FDF728FB08BD08B5FDF771
S32580004D4024FB08BD08B5FDF720FB08BD08B5FDF71CFB08BD08B5FDF718FB08BD08B5FDF791
S32580004D6014FB08BD08B5FDF710FB08BD08B5FDF70CFB08BD08B5FDF708FB08BD0420714687
S32580004D80084202D0EFF3098001E0EFF3088081690A884BF6AB639A4200D0FEE7023181614A
S32580004DA020210160704700BF80B483B000AF786039603B681B0CC3F30B027B6813441B6884
S32580004DC003F48033002B14BF01230023DBB218460C37BD465DF8047B704780B483B000AF8C
S32580004DE0786039603B681B0CC3F30B027B6813441A683B6803F01F0322FA03F303F00103B2
S32580004E00002B14BF01230023DBB218460C37BD465DF8047B704780B582B000AF7860396084
S32580004E203B681B0CC3F30B027B6813441B689B0B03F00303002B03D1FDF7E4FB034600E008
S32580004E40002318460837BD4680BD80B582B000AF0346FB80B7F9063003211846FDF7B6FEE2
S32580004E6000BF0837BD4680BD80B584B000AFF860B9601346FB71FB791A46B968F868FDF7D7
S32580004E8079FF00BF1037BD4680BD80B582B000AF0346FB80B7F9063003211846FDF7E8FFB1
S32580004EA000BF0837BD4680BD80B483B000AF78607B689B6843F002027B689A607B689B6860
S32580004EC023F002027B689A6000BF0C37BD465DF8047B704780B400AF00BFBD465DF8047B4F
S32580004EE0704780B483B000AF78607B68002B01D1002301E042F6AF7318460C37BD465DF850
S32580004F00047B704780B582B000AFFEF7E9FD78607B6801224FF4E1310120FDF737FA00BFAC
S32580004F200837BD4680BD80B582B000AF0346FB80B7F9063000211846FEF7A0FE00BF08379C
S32580004F40BD4680BD80B485B000AFF860B9601346FB71FB79002B0BD0BB681B0CC3F30B02B6
S32580004F60FB68134404331A464FF4803313600AE0BB681B0CC3F30B02FB68134408331A46A5
S32580004F804FF48033136000BF1437BD465DF8047B704780B485B000AF78600B46FB70134685
S32580004FA0BB70FB78032B12D97B685A68FB78032101FA03F3DB431340FB60BB7803F0030290
S32580004FC0FB789A40FB681A437B685A6011E07B685A68FB78072101FA03F3DB431340FB60B3
S32580004FE0BB7803F00702FB789A40FB681A437B685A6000BF1437BD465DF8047B704780B585
S3258000500082B000AF0346FB80B7F9063003211846FFF7E2F900BF0837BD4680BD80B485B085
S3258000502000AFF860B9607A603B60BB6803F00701FB691B0103F01002FB680A431A607B68A5
S32580005040002B02D07B683A681A6000BF1437BD465DF8047B704780B485B000AFF860B960AD
S325800050607A603B60BB69002B02D0BB69FA691A6000BF1437BD465DF8047B704708B5FFF7C8
S3258000508075FBBDE80840FDF775BAFEE700F082BAC368826923F0200310B5C3600446836A8E
S325800050A09A420ED000F0B4F8E36823F4405323F0100343F01003E360A36AA3612369E3628E
S325800050C02360E36823F4804323F04003E36010BDCB6823F4002270B50C46CA609906054645
S325800050E002D52046FFF7D4FFD4E902365A1C10DAB0050ED4C3F1FF2346F4903603F57F03E8
S32580005100E660FE33A36023685A1C22601D70E8B270BD41F28A023240022A07D0002346F02B
S325800051208006A360E6604FF0FF30F1E74AF210033340B3F5004F0AD100212046FFF772FA57
S32580005140E368990602D52046FFF7A2FFE66846F4903316F4706FE3600ED1606900F039FAC9
S3258000516000B372051ED504F12403236123600123E36146F49233E36013F4106F2168266921
S3258000518026D0E36A99422CBFC6EB0101C6EB0301B9B9731CE3622360E3695A1E2363A26003
S325800051A03570B4E74FF48070FFF72CFA4FF48073E268E36146F4943320611A432060E26075
S325800051C0DAE722463046FFF783F90028E1D0AAE74A1CEDB222600D70E26A216891422CBF37
S325800051E0C6EB0101C6EB0201E2695B05226303D40A2D01D08A4209DC0023E66226602246A9
S32580005200A3603046FFF764F900288CD128467FE738B5016804460569C36AC06820F400224A
S32580005220E26000F08202022A02D04FF0FF3038BD10F48030FBD0994238BF19468D4208D179
S32580005240E3680020E56223F480332560A060E360EDE72246491B2846FFF73AF90028EFD066
S32580005260E3E7A8B14FF0805340F80C3C50F8042C72B11368B3F1805F0AD150F8083C51683A
S3258000528003330B4440F8083C936840F8043CEDE7704738B505460C4615F8010B70B1A368BA
S325800052A0013B002BA36004DB23685A1C22601870F2E72146FFF70CFF431CEDD138BD421C63
S325800052C010B58307044616D1234654F8041BA1F1013020EA010010F0803FF5D011F0FF0F93
S325800052E011D011F47F4F0CD011F47F0F14BF23460333981A04E010F8013B002BE1D1801A42
S3258000530010BD0233F5E70133F3E770B50D4606461046144600F02DF82B78722B17D0772BC9
S3258000532018D0612B23D1082348F2020215F8011F2B2912D0622915D01B07E260666104D53F
S32580005340022200212046FFF76DF9204670BD00230122EBE704230222E8E742F0030243F091
S325800053600203E3E742F0040243F00103DEE70024EBE7F0B5C46889B00546A10722D0220796
S3258000538018D4D0E90467FFF76BFA384600F01BF9230502D53046FFF764FFA40DA40514F16D
S325800053A0A54F07D12022296A684600F01BF9684600F00BF83C2200212846FFF767FE00200B
S325800053C009B0F0BD4FF0FF30FAE710B50446FFF776FF01462046BDE8104000F0FDB8C368A6
S325800053E070B513F00306044611D09B0611D5856AFFF74EFEE368204623F44053E360FFF77F
S3258000540007FF0022064629462046FFF70BF9304670BD836905681D440369ED1AEAE75FF0D3
S32580005420000C30B51C0022D112006FD0914206D305460846002100F06FF80446284600F030
S325800054406BF80A462146BDE830401CF0404F08BF704703D54942404261F100015FEA8C0C65
S3258000546038BF70475B42524263F10003704742D41C0C04BF1B040CF1100C13F07F4F04BFEC
S325800054801B020CF1080C13F0704F04BF1B010CF1040C13F0404F04BF0CF1020C5FEA83037B
S325800054A05CBF0CF1010C5B00CCF1200E22FA0EF4234302FA0CF200FA0CF520FA0EF001FA6F
S325800054C00CF4204321FA0EF114461A4600F024F8A4FB0023AA1A71EB03033CBF1B190138B3
S325800054E0CCF1200E22FA0CF203FA0EF4224323FA0CF30021A7E7821A71EB03033CBF0246B1
S325800055000B464FF0000141F100009CE700200021BDE8304000F03DB80423B1EB122F09D2A5
S32580005520090241EA10610002013B08BF7047B1EB122FF5D30018494134BF9142891A404151
S32580005540494134BF9142891A4041494134BF9142891A4041494134BF9142891A40414941DF
S3258000556034BF9142891A4041494134BF9142891A4041494134BF9142891A4041494134BF56
S325800055809142891A4041A3F1010313F00F0FD2D170477047034613F0030F0ED101F0FF0196
S325800055A041EA012141EA0141043A24BF43F8041BB2F10402F9D202F10402013A24BF03F8AA
S325800055C0011BFAE770474FF0FF3070474FF0FF3070474FF0FF3070474FF0FF3070474FF0BE
S325800055E0FF3070474FF0FF30704710467047FFFF2E2E2F7574696C69746965732F66736C34
S325800056005F64656275675F636F6E736F6C652E633A333932203A204E554C4C20213D20632D
S32580005620680000002E2E2F7574696C69746965732F66736C5F64656275675F636F6E736FBA
S325800056406C652E633A333933203A203020213D2073697A65000000002E2E2F7574696C69D4
S32580005660746965732F66736C5F64656275675F636F6E736F6C652E633A343635203A204E91
S32580005680554C4C20213D2063680000002E2E2F7574696C69746965732F66736C5F646562C9
S325800056A075675F636F6E736F6C652E633A343636203A203020213D2073697A6500000000C8
S325800056C02E2E2F7574696C69746965732F66736C5F64656275675F636F6E736F6C652E6320
S325800056E03A353237203A2062756620213D204E554C4C00002E2E2F7574696C697469657355
S325800057002F66736C5F64656275675F636F6E736F6C652E633A353832203A20636800000028
S325800057202E2E2F7574696C69746965732F66736C5F64656275675F636F6E736F6C652E63BF
S325800057403A373136203A206B5374617475735F53657269616C4D616E616765725F5375637E
S3258000576063657373203D3D2073746174757300002E2E2F7574696C69746965732F66736CBC
S325800057805F64656275675F636F6E736F6C652E633A373236203A206B5374617475735F5346
S325800057A0657269616C4D616E616765725F53756363657373203D3D20737461747573000005
S325800057C02E2E2F7574696C69746965732F66736C5F64656275675F636F6E736F6C652E631F
S325800057E03A373337203A206B5374617475735F53657269616C4D616E616765725F537563DB
S3258000580063657373203D3D2073746174757300FF2E2E2F647269766572732F66736C5F6337
S325800058206C6F636B2E633A313533203A20216279706173735874616C4F73630040787D01B4
S3258000584080F0FA0200E1F505405973072E2E2F647269766572732F66736C5F636C6F636BFF
S325800058602E633A31323233203A20305520213D2064656C61795F7573000000002E2E2F642D
S325800058807269766572732F66736C5F636C6F636B2E633A31323334203A204457545F435414
S325800058A0524C5F4E4F435943434E545F4D736B20213D20284457542D3E4354524C202620BF
S325800058C04457545F4354524C5F4E4F435943434E545F4D736B2900FF2E2E2F6472697665A8
S325800058E072732F66736C5F636C6F636B2E683A31303430203A20696E646578203C3D203648
S32580005900000000002E2E2F647269766572732F66736C5F6770696F2E633A3537203A2069DB
S325800059206E7374616E6365203C2041525241595F53495A4528735F6770696F4261736573C9
S32580005940290000002E2E2F647269766572732F66736C5F6770696F2E633A313133203A20B2
S3258000596070696E203C20333200FFFFFF0000000000801B4000C01B4000001C4000401C408E
S3258000598000000C40FFFF1A011E001A020C031E012E2E2F647269766572732F66736C5F63F4
S325800059A06C6F636B2E683A31303430203A20696E646578203C3D2036000000002E2E2F64B3
S325800059C07269766572732F66736C5F6C70756172742E633A313232203A20696E7374616ED4
S325800059E06365203C2041525241595F53495A4528735F6C707561727442617365732900001B
S32580005A002E2E2F647269766572732F66736C5F6C70756172742E633A313335203A204E558A
S32580005A204C4C20213D2068616E646C65000000002E2E2F647269766572732F66736C5F6C75
S32580005A4070756172742E633A313536203A204E554C4C20213D2068616E646C65000000006E
S32580005A602E2E2F647269766572732F66736C5F6C70756172742E633A313733203A204E5528
S32580005A804C4C20213D206461746100002E2E2F647269766572732F66736C5F6C707561722F
S32580005AA0742E633A313837203A204E554C4C20213D206461746100002E2E2F6472697665EF
S32580005AC072732F66736C5F6C70756172742E633A323431203A204E554C4C20213D20636F69
S32580005AE06E666967000000002E2E2F647269766572732F66736C5F6C70756172742E633ABC
S32580005B00323432203A203055203C20636F6E6669672D3E62617564526174655F427073005F
S32580005B202E2E2F647269766572732F66736C5F6C70756172742E633A323434203A2028756E
S32580005B40696E74385F742946534C5F464541545552455F4C50554152545F4649464F5F5384
S32580005B60495A456E286261736529203E3D20636F6E6669672D3E74784669666F57617465C0
S32580005B80726D61726B0000002E2E2F647269766572732F66736C5F6C70756172742E633AA2
S32580005BA0323435203A202875696E74385F742946534C5F464541545552455F4C50554152FB
S32580005BC0545F4649464F5F53495A456E286261736529203E3D20636F6E6669672D3E7278EE
S32580005BE04669666F57617465726D61726B0000002E2E2F647269766572732F66736C5F6C24
S32580005C0070756172742E633A353230203A204E554C4C20213D20636F6E66696700000000A7
S32580005C202E2E2F647269766572732F66736C5F6C70756172742E633A353635203A2030557F
S32580005C40203C2062617564526174655F427073002E2E2F647269766572732F66736C5F6CCD
S32580005C6070756172742E633A383333203A204E554C4C20213D206461746100002E2E2F642D
S32580005C807269766572732F66736C5F6C70756172742E633A383638203A204E554C4C202111
S32580005CA03D206461746100002E2E2F647269766572732F66736C5F6C70756172742E633AA7
S32580005CC0393630203A204E554C4C20213D2068616E646C65000000002E2E2F64726976653B
S32580005CE072732F66736C5F6C70756172742E633A31303235203A204E554C4C20213D206880
S32580005D00616E646C650000002E2E2F647269766572732F66736C5F6C70756172742E633A39
S32580005D2031303236203A204E554C4C20213D2072696E674275666665720000002E2E2F64C8
S32580005D407269766572732F66736C5F6C70756172742E633A31303439203A204E554C4C2049
S32580005D60213D2068616E646C650000002E2E2F647269766572732F66736C5F6C7075617232
S32580005D80742E633A31303834203A204E554C4C20213D2068616E646C650000002E2E2F64C3
S32580005DA07269766572732F66736C5F6C70756172742E633A31303835203A204E554C4C20E9
S32580005DC0213D2078666572002E2E2F647269766572732F66736C5F6C70756172742E633A4A
S32580005DE031303836203A204E554C4C20213D20786665722D3E646174610000002E2E2F6452
S32580005E007269766572732F66736C5F6C70756172742E633A31303837203A20305520213DDE
S32580005E2020786665722D3E6461746153697A65002E2E2F647269766572732F66736C5F6C9E
S32580005E4070756172742E633A31313233203A204E554C4C20213D2068616E646C650000003F
S32580005E602E2E2F647269766572732F66736C5F6C70756172742E633A31313437203A204E47
S32580005E80554C4C20213D2068616E646C650000002E2E2F647269766572732F66736C5F6CBC
S32580005EA070756172742E633A31313438203A204E554C4C20213D20636F756E74000000001B
S32580005EC02E2E2F647269766572732F66736C5F6C70756172742E633A31313931203A204EE8
S32580005EE0554C4C20213D2068616E646C650000002E2E2F647269766572732F66736C5F6C5C
S32580005F0070756172742E633A31313932203A204E554C4C20213D2078666572002E2E2F6440
S32580005F207269766572732F66736C5F6C70756172742E633A31313933203A204E554C4C2067
S32580005F40213D20786665722D3E646174610000002E2E2F647269766572732F66736C5F6CBA
S32580005F6070756172742E633A31313934203A20305520213D20786665722D3E64617461532B
S32580005F80697A65002E2E2F647269766572732F66736C5F6C70756172742E633A31333135A9
S32580005FA0203A204E554C4C20213D2068616E646C650000002E2E2F647269766572732F667D
S32580005FC0736C5F6C70756172742E633A31333434203A204E554C4C20213D2068616E646C74
S32580005FE0650000002E2E2F647269766572732F66736C5F6C70756172742E633A3133343529
S32580006000203A204E554C4C20213D20636F756E74000000002E2E2F647269766572732F665F
S32580006020736C5F6C70756172742E633A31333637203A204E554C4C20213D2068616E646C0E
S325800060406500FFFF00000000004018400080184000C0184000001940004019400080194004
S3258000606000C0194000001A40FFFF18051C000C001801020306031A050E06FFFF000000008C
S32580006080004018400080184000C0184000001940004019400080194000C0194000001A40B4
S325800060A02E2E2F636F6D706F6E656E742F756172742F6C70756172745F616461707465720A
S325800060C02E633A323238203A2068616E646C65002E2E2F636F6D706F6E656E742F75617218
S325800060E0742F6C70756172745F616461707465722E633A323239203A20636F6E6669670047
S325800061002E2E2F636F6D706F6E656E742F756172742F6C70756172745F61646170746572A9
S325800061202E633A323330203A20636F6E6669672D3E696E7374616E6365203C202873697ACF
S32580006140656F6628735F4C7075617274416461707465724261736529202F2073697A656F0F
S3258000616066284C50554152545F54797065202A29290000002E2E2F636F6D706F6E656E7438
S325800061802F756172742F6C70756172745F616461707465722E633A323331203A20735F4C8E
S325800061A0707561727441646170746572426173655B636F6E6669672D3E696E7374616E63C5
S325800061C0655D00002E2E2F636F6D706F6E656E742F756172742F6C70756172745F616461E2
S325800061E0707465722E633A323939203A2068616E646C65002E2E2F636F6D706F6E656E74AB
S325800062002F756172742F6C70756172745F616461707465722E633A333230203A2068616EF5
S32580006220646C65002E2E2F636F6D706F6E656E742F756172742F6C70756172745F6164610E
S32580006240707465722E633A333231203A20646174610000002E2E2F636F6D706F6E656E742A
S325800062602F756172742F6C70756172745F616461707465722E633A333232203A206C656E8B
S32580006280677468002E2E2F636F6D706F6E656E742F756172742F6C70756172745F616461A0
S325800062A0707465722E633A333431203A2068616E646C65002E2E2F636F6D706F6E656E74F6
S325800062C02F756172742F6C70756172745F616461707465722E633A333432203A206461742F
S325800062E0610000002E2E2F636F6D706F6E656E742F756172742F6C70756172745F61646122
S32580006300707465722E633A333433203A206C656E677468002E2E2F636F6D706F6E656E747D
S325800063202F73657269616C5F6D616E616765722F73657269616C5F6D616E616765722E6374
S325800063403A373734203A20777269746548616E646C6500002E2E2F636F6D706F6E656E748C
S325800063602F73657269616C5F6D616E616765722F73657269616C5F6D616E616765722E6334
S325800063803A373735203A206275666665720000002E2E2F636F6D706F6E656E742F736572CF
S325800063A069616C5F6D616E616765722F73657269616C5F6D616E616765722E633A3737368F
S325800063C0203A206C656E6774680000002E2E2F636F6D706F6E656E742F73657269616C5FCF
S325800063E06D616E616765722F73657269616C5F6D616E616765722E633A373831203A206806
S32580006400616E646C650000002E2E2F636F6D706F6E656E742F73657269616C5F6D616E61E9
S325800064206765722F73657269616C5F6D616E616765722E633A373931203A207265616448E5
S32580006440616E646C650000002E2E2F636F6D706F6E656E742F73657269616C5F6D616E61A9
S325800064606765722F73657269616C5F6D616E616765722E633A373932203A20627566666580
S32580006480720000002E2E2F636F6D706F6E656E742F73657269616C5F6D616E616765722F8E
S325800064A073657269616C5F6D616E616765722E633A373933203A206C656E67746800000032
S325800064C02E2E2F636F6D706F6E656E742F73657269616C5F6D616E616765722F736572690D
S325800064E0616C5F6D616E616765722E633A373938203A2068616E646C650000002E2E2F63C8
S325800065006F6D706F6E656E742F73657269616C5F6D616E616765722F73657269616C5F6D21
S32580006520616E616765722E633A383039203A20636F6E6669670000002E2E2F636F6D706F62
S325800065406E656E742F73657269616C5F6D616E616765722F73657269616C5F6D616E616705
S3258000656065722E633A383134203A2073657269616C48616E646C65002E2E2F636F6D706F67
S325800065806E656E742F73657269616C5F6D616E616765722F73657269616C5F6D616E6167C5
S325800065A065722E633A393239203A2073657269616C48616E646C65002E2E2F636F6D706F20
S325800065C06E656E742F73657269616C5F6D616E616765722F73657269616C5F6D616E616785
S325800065E065722E633A393837203A2073657269616C48616E646C65002E2E2F636F6D706FDC
S325800066006E656E742F73657269616C5F6D616E616765722F73657269616C5F6D616E616744
S3258000662065722E633A393838203A20777269746548616E646C6500002E2E2F636F6D706FEF
S325800066406E656E742F73657269616C5F6D616E616765722F73657269616C5F6D616E616704
S3258000666065722E633A31303131203A20777269746548616E646C65002E2E2F636F6D706F95
S325800066806E656E742F73657269616C5F6D616E616765722F73657269616C5F6D616E6167C4
S325800066A065722E633A31303136203A2068616E646C6500002E2E2F636F6D706F6E656E74A6
S325800066C02F73657269616C5F6D616E616765722F73657269616C5F6D616E616765722E63D1
S325800066E03A31303336203A2073657269616C48616E646C65000000002E2E2F636F6D706F21
S325800067006E656E742F73657269616C5F6D616E616765722F73657269616C5F6D616E616743
S3258000672065722E633A31303337203A207265616448616E646C6500002E2E2F636F6D706F5B
S325800067406E656E742F73657269616C5F6D616E616765722F73657269616C5F6D616E616703
S3258000676065722E633A31303634203A207265616448616E646C6500002E2E2F636F6D706F1B
S325800067806E656E742F73657269616C5F6D616E616765722F73657269616C5F6D616E6167C3
S325800067A065722E633A31303639203A2068616E646C6500002E2E2F636F6D706F6E656E749D
S325800067C02F73657269616C5F6D616E616765722F73657269616C5F6D616E616765722E63D0
S325800067E03A31323839203A2073657269616C48616E646C65000000002E2E2F636F6D706F16
S325800068006E656E742F73657269616C5F6D616E616765722F73657269616C5F6D616E616742
S3258000682065722E633A31323936203A2073657269616C48616E646C6500FFFFFF2E2E2F632D
S325800068406F6D706F6E656E742F73657269616C5F6D616E616765722F73657269616C5F70DB
S325800068606F72745F756172742E633A313339203A2073657269616C436F6E6669670000006A
S325800068802E2E2F636F6D706F6E656E742F73657269616C5F6D616E616765722F7365726949
S325800068A0616C5F706F72745F756172742E633A313430203A2073657269616C48616E646C05
S325800068C0650000002E2E2F636F6D706F6E656E742F73657269616C5F6D616E616765722F57
S325800068E073657269616C5F706F72745F756172742E633A323030203A2073657269616C48B4
S32580006900616E646C650000002E2E2F636F6D706F6E656E742F73657269616C5F6D616E61E4
S325800069206765722F73657269616C5F706F72745F756172742E633A323637203A2073657277
S3258000694069616C48616E646C650000002E2E2F636F6D706F6E656E742F73657269616C5FC3
S325800069606D616E616765722F73657269616C5F706F72745F756172742E633A323638203A03
S3258000698020627566666572002E2E2F636F6D706F6E656E742F73657269616C5F6D616E61CE
S325800069A06765722F73657269616C5F706F72745F756172742E633A323639203A206C656E00
S325800069C0677468002E2E2F636F6D706F6E656E742F73657269616C5F6D616E616765722F78
S325800069E073657269616C5F706F72745F756172742E633A323831203A2073657269616C48AA
S32580006A00616E646C650000002E2E2F636F6D706F6E656E742F73657269616C5F6D616E61E3
S32580006A206765722F73657269616C5F706F72745F756172742E633A323832203A2062756686
S32580006A40666572002E2E2F636F6D706F6E656E742F73657269616C5F6D616E616765722FFD
S32580006A6073657269616C5F706F72745F756172742E633A323833203A206C656E677468006D
S32580006A802E2E2F647269766572732F66736C5F636C6F636B2E683A393639203A20627573CB
S32580006AA0795368696674203C3D2043434D5F4E4F5F425553595F5741495400002E2E2F642C
S32580006AC07269766572732F66736C5F636C6F636B2E683A31303036203A2062757379536827
S32580006AE0696674203C3D2043434D5F4E4F5F425553595F57414954002E2E2F64726976656A
S32580006B0072732F66736C5F636C6F636B2E683A31303430203A20696E646578203C3D203615
S32580006B2000FFFFFF640000000000000001000000000000000100000000000000000000006C
S32580006B402E2E2F647269766572732F66736C5F636C6F636B2E683A31303430203A20696E60
S32580006B60646578203C3D203600FFFFFF030000002A2A2A20617373657274206661696C650E
S32580006B8064203A20002A2A2A205F437379735F616C6C6F63206661696C65640A0072007710
S30D80006BA000FFFFFF00A4781F2F
S503025E9C
S7058000230552
